:020000043400C6
:108000003DB8F39600000000200000002C42010063
:108010000000000000000000000000000000000060
:108020003DB8F3960000000020003400147C0000EE
:108030000000000000000000000000000000000040
:1080400000E000304D2B00309D1900309D190030AC
:108050000000000000000000000000000000000020
:108060000000000000000000000000009D1900302A
:1080700000000000000000009D1900309D19003034
:108080000348854600F01CF9004800475D57003062
:1080900000E0003000000000801C800803D0401C7D
:1080A000801EFCD100BF7047EFF3108072B670479E
:1080B00080F310887047F0B51FB40646002082B0E8
:1080C00005464024019100901BE0019922460F468D
:1080D000304600F048F8049A059B801A994110D365
:1080E00010461946224600F02EF8361A8F410197A5
:1080F000224601200021009F00F025F838184D414C
:1081000000902046641E0028DFDC019B0098294671
:10811000324607B0F0BD30B5434351435C18010C03
:10812000130C0D465D432C1980B292B2054655439F
:1081300051430A0C09044D1962415843010C0004D3
:108140004019514130BD10B5202A04DB0146203AC8
:108150009140002010BD914020239C1A0346E3402B
:108160001943904010BD10B5202A04DB0846203A80
:10817000D040002110BD0B46D340D0402024A21A8D
:1081800091400843194610BD10B5431A934209D2D5
:108190008318881803E0401E01785B1E1970521E78
:1081A000F9D210BD03460B439B0703D009E008C971
:1081B000121F08C0042AFAD203E00B780370401C97
:1081C000491C521EF9D210BDD2B201E00270401C0F
:1081D000491EFBD270470022F6E710B513460A4647
:1081E00004461946FFF7F0FF204610BD421C0178F7
:1081F000401C0029FBD1801A704730B5044600208E
:10820000034600E05B1C934203D2E05CCD5C401B64
:10821000F8D030BD30B505460020034600E05B1CB9
:10822000934205D2EC5CC85C201A01D1002CF6D137
:1082300030BD70B50446002903D000202022012360
:1082400010E0002801D00020C043C046C0460DE029
:108250002546D5408D4205D30D469540641B1D46ED
:10826000954040191546521E002DF1DC214670BD87
:1082700070B5002504462E46002911D0002C01DAE5
:1082800001254442002901DA012649422046FFF730
:10829000D0FFB54200D04042002D00D0494270BD11
:1082A000002C02DA0121C90702E0002C00DD03499D
:1082B0000846C046C046214670BD0000FFFFFF7F54
:1082C000064C0125064E05E0E36807CC2B430C3C29
:1082D00098471034B442F7D3FFF7D6FE007C003045
:1082E000107C0030B0B58AB00D460446029203936C
:1082F0000E98009005A807A90A222B4602F096FBCB
:10830000069A0599204602F0FDFC0AB0B0BDB0B552
:1083100000290FD00378140E5C406304A5045D406F
:10832000E3036B40A5035D402B1912025A40401C29
:10833000491EEDE71046B0BDBFB5054601A8027263
:10834000029101951C78280603D4188C0C498842A8
:108350000BD17F2005400AD001A8411D204600F026
:1083600011F8002809D0012D01D13D2006E001A817
:10837000411C204600F006F800E0002004B0B0BD2B
:10838000FFFF00000022042A05D08B5C521C8342B0
:10839000F9D1002070473D207047000070B58AB0C9
:1083A00014460D460646C8780978091F1C2916D8B8
:1083B00001228A400D490A4211D0A97888420ED97B
:1083C0006946304601F013FF01461E391E2908D3C5
:1083D000432808D06846C078E9788842F0D22070F7
:1083E00000200AB070BD4320FBE7C0460300001028
:1083F00010B503781C461A3C022C0AD3032B0AD072
:10840000022B0AD1C90708D0C16800290DD483689E
:1084100007E04B2010BDC90701D13D2010BD836886
:10842000C16813605160002010BD452010BDFEB52D
:108430001C4617460E460546002200F065F8B100BE
:108440000F2202928A406B6C9343286F9043089AE4
:10845000802F06D16B64134608228A4010431A46C7
:1084600006E0019102990F4001998F403B436B64F4
:1084700028672846314600F009F801200440B4403E
:10848000B0402968814321432960FEBDB0B53A4B15
:1084900098420ED0394B98420BD0394B984208D0B5
:1084A000384B984205D0384B984202D0374B98420F
:1084B00020D1304B364CA04201D8002400E00124EA
:1084C0006404001B334D4019C008184020180D4BA0
:1084D000C018CB00042900D3203B1F2425469D4013
:1084E000042900D3001D0168A94322409A400A4391
:1084F0000260B0BD1D4BC018C0090001A523DB05FB
:10850000E6E7C04600404254B0B51B4B98420ED03F
:108510001A4B98420BD01A4B984208D0194B9842EC
:1085200005D0194B984202D0184B984218D1114BE4
:10853000174CA04201D8002400E001246404001B71
:10854000144D4019C00818402018134BC0180123BF
:108550001A408A408B400168994311430160B0BDC5
:10856000024BC018C0090001014BEFE700007FADCE
:1085700000108052F0FFFF1F00004354800043545E
:108580000001435400004554000145548000455407
:10859000FFFF44540000BDAB0050425470B5044688
:1085A000B74EFFF781FDA2590A494B1C1343A35153
:1085B000094A1268A35912095A4012070025002AD5
:1085C00004D1A21912688A4200D90125FFF770FD73
:1085D000284670BDFFFFFFEF00210050F8B50026D0
:1085E00006604660114A0A4001273B07BC047D062D
:1085F000AA420BD000940D469D4303242406A542B5
:1086000003D01B246405A54206D134462A461940EE
:1086100044600A430260F8BDBC0514430F26B6054A
:10862000B442009CF3D000212A46F2E70000FCEFA0
:10863000F0B500240460446001252B070A469A43E4
:108640000A4E9619760A0B2E03D20B2254021B4AAD
:1086500006E0074F0F40074EB74204D16C03324685
:10866000194044600C4622430260F0BD00C0DFBDEB
:1086700000E0FFEF0000104001210A0790434A0686
:10868000904214D00D4A904213D01B2252059042C2
:108690000BD00722D205904207D00F2292059042BC
:1086A00003D003221206904206D1880370470020AF
:1086B0007047412040027047C80370470040204285
:1086C000002807D0002905D0002A03D0002B01D0B4
:1086D0009A4201D20020704701207047F0B58BB05C
:1086E0001E460392074609A80091FFF777FF0A9DEF
:1086F000099C0197384621462A4602963346FFF7E1
:10870000DFFF03990246F74800290DD0002A0BD05D
:1087100004A80022028207950694009A0592019A05
:108720000492029A00F02CF90BB0F0BDF0B58BB0BA
:108730001C461746054609A80291FFF74FFF0A9EFF
:108740000999039528460D46324601942346FFF7C2
:10875000B7FFE44A002F24D0002822D03C4604A8CA
:10876000012101820796069502980590039F0497C0
:10877000434D7859000F521C0E2812D83846164621
:10878000FFF70CFF324600280BD07D1904A82146C4
:10879000019A00F037F902460F200007296881434B
:1087A000296010460BB0F0BDF0B58BB01D461646E3
:1087B000074609A80191FFF73BFF0A9A099C029717
:1087C0003846214603952B46FFF77AFF0246C548F7
:1087D000002E0ED0002A0CD004A80022028207949A
:1087E0000694019A0592029A04923146039A00F087
:1087F000C7F80BB0F0BDC04680B50423FFF7D4FF27
:1088000080BD0000F0B58BB01C461746054609A890
:108810000291FFF70DFF0A9E0999039528460D4620
:10882000324601942346FFF74BFFE64A002F24D03F
:10883000002822D03C4604A8012101820796069513
:1088400002980590039F0497DF4D7859000F521C42
:108850000E2812D838461646FFF7A0FE32460028EA
:108860000BD07D1904A82146019A00F0CBF80246EE
:108870000F20000729688143296010460BB0F0BD26
:1088800020000100E0B5019201AA0423FFF7BAFF1E
:108890008CBD0000F0B587B01C460D464768417C92
:1088A00000292FD0029206688F4BF1580F220192B7
:1088B000D2431140F1503A408068111A09090091E1
:1088C000FFF7DAFE0099081819497050864BF158E5
:1088D000012001430E229143F15013210903711825
:1088E0000A68D207FCD1C0040A68024002D10868B5
:1088F000002000E00F484B68019EB3434B60002A04
:10890000029A12D10020102804D0395803AB195014
:10891000001DF8E703A88018002C05D00178297005
:10892000401C641E6D1CF7E7002007B0F0BDC04678
:108930000830010006003601F0B585B01C4615462A
:108940000E46074603A8FFF749FE0498002806D004
:10895000384631462A462346FFF7C0FE0EE001A8FE
:108960003146FFF765FE0298002806D038463146AA
:108970002A462346FFF718FF00E0D14805B0F0BDB6
:10898000F8B514460D4606464068B168F268121AFA
:108990005118A14201D2CA48F8BD0F2102460A402F
:1089A00012D0884370601020801AA042274600D859
:1089B0000746304629463B46FFF76CFF7168103189
:1089C0007160ED19E41B00E00020270900280ED19A
:1089D000002F0CD00022102330462946FFF75AFF03
:1089E0007168103171607F1E1035103CEEE7002C6D
:1089F00007D0002805D10022304629462346FFF73C
:108A000049FFF8BDF0B585B00E460446436880685E
:108A1000E168C91A0918914201D2A9485FE004929D
:108A20002768314979580F220392D54329402E4AAD
:108A3000B950B91801911D40291A090900910293F2
:108A4000FFF71AFE029A0099401801994860264BD8
:108A5000F858012101430E208143F9500398024048
:108A60000027002A14D065601020801A049DA842B7
:108A7000294600D80146029120463146029B00F06B
:108A800023F9616810316160029976186D1A01E06E
:108A90003846049D29462909049100280FD10499DC
:108AA0008F420CD2002210232046314600F00CF9F0
:108AB0006168103161607F1C1036103DEDE70028C1
:108AC00007D1002D05D00022204631462B4600F06C
:108AD000FBF82168E04BCA58039CA243CA5005B07A
:108AE000F0BDC0460100360104300100F0B58DB084
:108AF0001C4616460D4607460BA8FFF76FFD0C985F
:108B000000281FD009A82946FFF768FD23460A9CC4
:108B10003846099F0090394622460193FFF7D0FD61
:108B2000674A002E4BD0002849D00120000204A93A
:108B30000882079406970595009F0497614C385961
:108B4000000F24E002A82946FFF772FD5C4A039853
:108B5000002834D009A82946FFF76AFD0A9A23465F
:108B6000099C384621460193FFF7AAFD3146002EA5
:108B700024D0002822D00120000204A908820794F2
:108B80000694059504974F4C3859000F4C4A521CD7
:108B90000E2814D838461546FFF700FD2A4600284F
:108BA0000DD03C1904A83146019AFFF7E9FE0246B0
:108BB0000F20000721688143216000E0404A1046F1
:108BC0000DB0F0BD0100360120000100F0B58DB000
:108BD0001E4617460D4604460BA8FFF7FFFC0C98EF
:108BE00000282DD009A82946FFF7F8FC33460A993A
:108BF000099E009420460C46314622460193FFF719
:108C00005FFD2F4A002F58D0002856D0FF20023099
:108C100004A90882079406960595009E0496294C9F
:108C20003059000F521C0E2847D830461546FFF722
:108C3000B5FC2A46002840D0341904A8394631E052
:108C4000009702A82946FFF7F3FC1D4A0398002865
:108C500033D009A82946FFF7EBFC0A9F3346099E4B
:108C6000204631463A460193FFF72AFD0099002934
:108C700022D0002820D0FF20023004A9088204A8B6
:108C8000F0C0104EA059000F0D4A521C0E2814D8E7
:108C900020461546FFF782FC2A4600280DD0A4196D
:108CA00004A80099019AFFF7ADFE02460F200007C5
:108CB00021688143216000E0014A10460DB0F0BDFB
:108CC0000100360120000100F0B587B01D460E46B8
:108CD0000446476859483818400A012102910B2878
:108CE000009213D30B2040025549791881420DD3CD
:108CF000780B5449884209D05348874202D35348DD
:108D0000874201D3002000E001200290A068391AB8
:108D100009090191FFF7B0FC0199081821684C4A34
:108D20008850607C002809D102F076F9002805D02F
:108D3000132000032168085800037AD4009B002BFD
:108D400008D101200F2D014600D80021029A504081
:108D5000014207D10020102804D0395803AA11502D
:108D6000001DF8E7029800280BD003A8C018002DBA
:108D700011D0317802780A430270401C6D1E761CB7
:108D8000F5E703A8C018002D05D031780170401C0C
:108D90006D1E761CF7E70020102804D003A909589F
:108DA0003950001DF8E720682B49425803239B03E4
:108DB0001A434250217C002937D0029319214D01DA
:108DC000019513210E0381590127002D07D0394049
:108DD00005D0012000F09EFC6D1E2068F1E781198E
:108DE0000A6818231340082B1AD162680023102B3D
:108DF00004D003ADED58D5501B1DF8E74A68029B1F
:108E00001A434A60019D8159002D07D0394005D091
:108E1000012000F07FFC6D1E2068F4E780190268D5
:108E20000C48D10603D4002D05D0002003E0801D9E
:108E300001E00848C01C07B0F0BDC04600C0DFBD5F
:108E400000C0DFAD80800200000010400020104014
:108E5000083001000300360104300100032211062E
:108E60000B460F3303600164002181641202FF236B
:108E7000083383508218516011614164012252020B
:108E80008350821851600165064A83181964815025
:108E90006B4A831819648150034A81508018016419
:108EA0007047C046880E0000080F00000122D2075C
:108EB000036893430360002904D0002048600860E1
:108EC0000862C86270470000F0B587B003465D488D
:108ED000002B00D1B2E0002900D1AFE002920126C0
:108EE00003200C4624340A6875060692022A03D130
:108EF000A278002A2F4604D04A68521E0F27174036
:108F00002F43039502028D6800200195082D3546F8
:108F100000D80546760200969A180492AA0325788E
:108F20002D042F4317431F60069A920792091A6473
:108F30000F2212048D6B2D04AF1817400A694D697A
:108F4000521E07261640AA07920E951962789201C2
:108F5000AA18CE7EB60216434A7E120232438E7E95
:108F6000760216433E439E640594227E12069E6C52
:108F700016439E64069A961E724272410E7E002E21
:108F800002D0009C224601E05202009C1C19009471
:108F9000019C661E1F2737400E7B3602F7193A43A5
:108FA000049C22600A7F0E6A3606360AB2182261D5
:108FB000069A521E56425641059AD278002A00D08F
:108FC00032021F4C1C19069415435D643204BA1812
:108FD000009F3A6040228A5C049D6A60CA6A521E01
:108FE000554255412D06059A1279002A00D1039267
:108FF000039A15434A6B521E5642564132042A4385
:1090000030254E5D16431E6548228A5C7A604A6CA4
:109010000D4B1340069C2364C96C0C4A0A40226025
:10902000029900290AD005988078485500204860A8
:10903000086008628860C8604863C86207B0F0BD15
:10904000880F00000160AA006D0B0000730700008C
:10905000B0B54122D20003688458074D25401B0457
:109060009B0F8024DC40A54201D10020B0BD8018B8
:1090700081630120B0BDC046FF01000010B5044669
:1090800000F016F8014608480D2C0AD8074A91420C
:1090900008D8A0000F4942580123DB07134343506F
:1090A000002010BD801C10BD01004A000084D717AD
:1090B00010B58000074942581205140F41580F207F
:1090C000084000F009F8611C4A081018FFF7B1F8D1
:1090D00010BDC0464012405210B5044600F028F8BA
:1090E000022C0AD8022C02D06101CD4A01E0A10174
:1090F000044A89180968002900D410BD204600F0F0
:10910000FEFA10BD80174052810007480A58072018
:109110001040072806D1054808581F2101400120AA
:10912000000208187047C046001240520001405229
:1091300080B5FFF7E9FF03280ED911210901884204
:1091400015D0FF210A461232904215D014318842C0
:1091500022D11448C06A0CE078440079400087446A
:10916000011D11190F480068C1170F4810E00D4884
:10917000C06BC00FC00380BD0120C1030948006D52
:10918000400305E00748406A084989688007C0171E
:10919000084080BD064880BD002080BD034840686F
:1091A00080BDC0464413405280F0FA021C7C00305F
:1091B00000127A0070B50C46054648683C21FFF75E
:1091C0000AF8A901584A8B5860680370DC0F0472D2
:1091D0009C00A40F44605C04640F84705B055B0F0B
:1091E000437089184A68304B13401401240F0475EA
:1091F0001202520FC36002618B6801229C0013406F
:109200004375E30F8375CC681F2325461D40C57544
:1092100065002D0F457765012D0F057765026D0FF0
:10922000C57625032D0F8576A5046D0F4576A4051B
:10923000E40E04760C69E504ED0F202685554D6992
:109240004562A505ED0EC5771C4084778C69174BE8
:1092500023408362E301DD0F034620335D73E402A4
:10926000E40F1C73CC6922409A73E202D20F5A7445
:10927000E203D20F1A74A207D20FDA73096ACA0F77
:109280005A768A00D20F1A76CA00D20CC2860720FC
:1092900008409874C8B2C106C90F19750007C00FFD
:1092A000D874002070BDC046FFFF1F00FFFF0700FD
:1092B000F0B593B0044604AD3C212846FEF78BFF81
:1092C00003950025029502A92046FFF773FFA00130
:1092D0001549415803980029294603D54168891E3C
:1092E0004A1E914100291CD0C668817801914578B9
:1092F0000778A01CFFF71CFF002E08D0691CFEF7A2
:1093000098FFB919491C48430199491C06E07A1C89
:109310004243681C0199491C41431046FEF789FFEE
:109320000546284613B0F0BD00184052B0B50C46B3
:10933000054608683821FEF74EFF6901384A8B5808
:10934000206803709C00A40F44601C01E40FC470EB
:10935000DC02E40E8470DB04DB0E437089184A687B
:10936000D30F4373FF231B0614469C438460896814
:10937000CB0FC375CBB2036107231B0713405A1EE3
:1093800093410373CA00D20F8275CA01D20F42758E
:109390004903490F01750020B0BDC046F0B591B03A
:1093A000044603AF38213846FEF715FF0025029525
:1093B000019701A92046FFF7B9FF600118494058FD
:1093C00000282AD50498022827D07E78002E24D0A1
:1093D000BF78002F21D003A805780598009020467B
:1093E000FFF7A6FE024628060024009940182146F1
:1093F00061412346FEF78FFE05460091384621461F
:1094000032462346FEF787FE02460B462846009961
:10941000FEF751FE0902000E4518284611B0F0BDB6
:1094200000164052FEB50C46030C010AA14E032C57
:1094300043D842D815460746A00001A210588746D7
:10944000111400301F1400302F1400305F1400304E
:10945000D8B2C9B20191029300F0ACFC0DE0CAB2DF
:10946000511E48424841082A29D0800028E0D8B23D
:10947000C9B20191029300F089FC019A029BA842B3
:109480001BD9500359060818F9B289004018E9B2EF
:10949000A207920D51180D4A815000260DE03802A6
:1094A000000E0AD1FF2002023A40C0431018424287
:1094B0004241AA4201D9CAB2E3E73046FEBD0120CB
:1094C0003902090EDBD00020D9E7C046000C045257
:1094D000F8B50D46070C010A764C032D3DD83CD853
:1094E0001646C9B2AB0001A2D2589746BD1400304F
:1094F000C7140030D5140030E5140030F8B20091E4
:1095000000F058FC0AE04A1E53425341082910D08B
:109510009A000FE0F8B2009100F038FC0099B042D8
:109520000ED81AE00002000E17D1481E42424241F6
:1095300004E001220002000E00D00022B2420CD949
:10954000480379060818F1B2AA07920D891801227A
:1095500092078918584A815000242046F8BDC04619
:10956000F8B50C46070C010A524E032C47D846D8D2
:109570001546A20001A39A589746C0464D150030E3
:1095800059150030691500307B150030F8B2C9B2AA
:10959000009100F00FFC0CE0CBB25A1E5142514139
:1095A000082B18D0890017E0F8B2C9B2009100F07A
:1095B000EDFB009BA84215D821E00202120E1ED13D
:1095C000FF2213021840D243801842424241AA426D
:1095D00015D9CBB206E001210002000E00D0002117
:1095E000A9420CD9580379060818E9B2A207920DCE
:1095F0008918044A8918304A81508058002630461C
:10960000F8BDC0460000FF83FEB50292040C020ABA
:10961000284D089F032927D0022949D10193E0B2A0
:10962000D6B2314600F0B2FB00971F2F40D8019907
:10963000090C3DD1029A90423AD97003610608188C
:10964000910040181C4940180321C90242581B4B85
:109650001340019A1204120A9A1842504258F823F1
:109660009A43009BDB001FE0D1B201224A40FF2653
:10967000360430408218504250411F2F18D81A0E1D
:1096800016D1029A904213D94803610608180A4974
:109690004018072189024258D2B21B02D218425008
:1096A0004258F8239A43FB00DBB2D21842500025FF
:1096B0002846FEBD01004A0000000452FF0000FFE2
:1096C00080B5FFF7AFFE80BD80B50A460146012098
:1096D0000002FFF7FDFE80BD80B50A46014601206D
:1096E0000002FFF73DFF80BD1CB514460A46014647
:1096F0000093012000022346FFF786FF1CBD80B5C2
:10970000012802D8FFF74AFE80BD801EFFF7D0FD7A
:1097100080BD000080B5034909684843FEF7BCFCE2
:1097200080BDC046187C003000280FD00849884210
:1097300007D00849884206D00749884205D10D2044
:109740007047042070470620704703207047C046CA
:1097500001003601060036010300360180B50EC84F
:109760002248FFF7C3F9FFF7DFFF80BDF0B587B0F0
:1097700070C81E48294622463346FFF727FAFFF7EE
:10978000D3FF002801D007B0F0BD0020069005905F
:10979000049003900F273740102E11D303AE1023EF
:1097A0000193124829463246FFF7C6F80290204638
:1097B0003146019AFEF721FD0299084300D00320AB
:1097C000002FE0D00028DED103AE084829463246FB
:1097D0003B46FFF7B1F80546204631463A46FEF7CC
:1097E0000CFD2843CFD00320CDE7C0460000205217
:1097F0000F210140082901D8102100E0202108187C
:109800000009400170470246C068002800D0704738
:1098100012680A6070470000F0B589B00D46044632
:109820000320E0604868400820610968204600F095
:1098300025FB0646206929680918204600F01EFB12
:1098400007462F48864219D10420089002A80790A5
:109850002069296808180838069006A8FFF77EFFD7
:109860002848874240D02648874209D00298A06005
:109870002868206021694018606031E087423CD14F
:1098800007460420059001A804902069296808185B
:109890000838039003A8FFF761FFBE4213D1019877
:1098A00002998142034600D30B462A68A3602369CC
:1098B000D3188142154600D31D466560814200D30E
:1098C000134623600CE0286821694118216060601C
:1098D0000C48864204D100200199A160E0600CE0B0
:1098E000204600F08DFA08E00020E0600298A060B9
:1098F00028682060216940186060E06809B0F0BD08
:10990000C378365A3C87C9A5BFB50D460446032027
:10991000E06008682060496849082161401860607B
:10992000204600F06DFAE06800280FD1A868E968C9
:10993000019028680290039101A90122204600F0BD
:1099400077FA002802D120682860E06804B0B0BD32
:10995000BFB5044603C90391019060680290E068B6
:10996000002801D1A068421C256801A9204600F00A
:109970005FFA002804D16560204600F041FAE068F3
:1099800004B0B0BD01460020086148610A78134662
:109990001A3B022B06D3032A06D0022A06D10C2238
:1099A0000A7070474B207047412070473020704745
:1099B0000146C4200A580020002A0ED0C031096890
:1099C0000B78062B09D08968491C06D0D188EE4A4D
:1099D000914201D0002900D1012070470548064975
:1099E000064A07230B6000230360026001234364DF
:1099F000F7E7C04680410050004100501F00008042
:109A0000F8B504460546D0354068884202D20120A8
:109A1000A07300E0A1600021CE430C277743686863
:109A2000C0192860204600F0D5FE103468688442D2
:109A300008D0C019686029680A78062A02D08968A7
:109A4000491CF4D0AE61F8BDB0B58AB00446002020
:109A50000292039000900C2901D00B4600E00223F3
:109A600005A807A90A2200F0E1FF942560590368C0
:109A7000069A0599204601F053F9605921461431A0
:109A8000884202D99434083820600AB0B0BD000082
:109A9000FEB51F46029104460190D034002B02D03F
:109AA000002038607860A07F002800D0FEBD2748E5
:109AB00010180325690200263246029BFEF73CFC83
:109AC0000028F3D1009620680178062902D0C188C9
:109AD000491CC180002F029B02D09868D96803C737
:109AE000019E7168EA4328209142DFD83268002A3B
:109AF000DCD09B689342D9D39A1A8A42134601D389
:109B0000009BDB430226F643B342CFD80298C068DD
:109B1000C018994203D20123019DAB7301E0019D5E
:109B2000AB60009E68602068C435A8420BD2034633
:109B30000C33236001610621017320688260206874
:109B400060603046FEBD2920FEBDC04600244B00AB
:109B5000F0B5CDB00C460746EE20385C002802D0A8
:109B6000099000260DE03E46D4363068002802D029
:109B70000178052919D06178002916D000264720E0
:109B8000099037460025607800280BD030463946CA
:109B90002A46FEF7E8FAC00701D1002020802834C9
:109BA0006D1CF0E709984DB0F0BDC188764DA94213
:109BB00008D16178002901D180687061002637469C
:109BC0000996DFE70792029352980C903D461035B4
:109BD0001BA8C8222946FEF7D7FA384600F0E0FF56
:109BE000009630680195401B0C9D0C21FEF740FB50
:109BF000FF2109020A91002601210691C0B20390BB
:109C00003846374604908168059110A900F0F8FAAB
:109C100001461E391E29099000D2AFE0432800D129
:109C2000A6E00B960020214608900F904878002867
:109C300075D010A84078851E052D0E9168D88A69C8
:109C4000C8690D900B6817991698AD0026463C46DA
:109C500002A77D5927463446AF46C046351C003022
:109C6000491C0030D11C0030D11C0030611C003078
:109C70006B1C003050400D9A5140014348D10A9866
:109C800003400120400208E050400D9A514001433A
:109C90003ED10A98034003200002584010D037E01C
:109CA0000A9D2B4003256D0203E00A9D2B400725EA
:109CB0002D025D402CD10D9B00F0DAFF002827D14A
:109CC000012000210F9AFEF73EFA06460D46394064
:109CD0000B9A1040084343D10999002940D10E98AE
:109CE000027810A90978914203D0012901D0012AF4
:109CF0003AD110A92822FEF747FA0B9830432F4398
:109D0000079900290B9001D00598086006980890E3
:109D10000E9928310F98401C0F900C9D86E76842E1
:109D2000684108990143C80704D110A90298A847BF
:109D300000281AD110A91AAA0498FEF72FFB0028B0
:109D40000B9E1AD11AA8007803998842049800D370
:109D500059E780680321C94388420BD928200CE0C9
:109D6000002803D03E2000E03D2009900B9E05E036
:109D7000432002E0009948610020099001981BA946
:109D8000C822FEF701FAFDE6FEFF0000012808D018
:109D9000002808D14A1E50425041072905D04000F2
:109DA0007047012903D0002070470120704703202D
:109DB0007047000002460020012A08D0002A0BD17B
:109DC000491E092908D2880004A1085870470329B0
:109DD00001D0022900D101207047C04605000000D3
:109DE000040000000100000001000000000000006D
:109DF0000000000000000000000000000100000062
:109E000010B586B004460D20E06008200590684635
:109E100003902A480190002000902069616808188A
:109E20000838049003A8FFF7A1FCE06006B010BD5D
:109E300070B586B016460D460446002907D0A868BE
:109E4000002804D02846FFF791FC002814D11948B7
:109E5000019000966D680D20E06008200590206953
:109E60002818083804906E46039603A8FFF77EFC76
:109E700025603178A160E06006B070BDFEB501AA32
:109E8000049208220592006908180838039003A874
:109E9000FFF764FC00280AD106480299814201D1EB
:109EA000084600E00448054A914200D1084606B041
:109EB00080BDC046C378365ACB0A117B3C87C9A502
:109EC000EE23C35C002B00D07047EE300B78142BD0
:109ED00003D0152B04D1012300E00023137001E00F
:109EE0003D2202700A6A2223C250496A2230416030
:109EF0007047B0B594B02924694600250D558124DA
:109F0000A4000C800793069200F060FE14B0B0BD70
:109F1000F0B58DB00546EE20285C002846D10E46EF
:109F200001922C46D03402A9284600F060F9074679
:109F300000283AD102A80078B04225D111200001B2
:109F400028180B990A9A0260416002A98878C9789A
:109F500081420ED822681378062B03D0D3885B1C6D
:109F6000D38022682B46C4339A4202D216730C3235
:109F700022600027FA43A261AA680323DB439A42C6
:109F800004D9282701980AE03D270EE02368636082
:109F90009A608142019802D822680549D180002840
:109FA00003D002A92822FEF7EFF8A7770DB0F0BD85
:109FB000FEFF0000F0B58BB00646EE20305C0028B6
:109FC00011D114460D463746EE376946304600F04B
:109FD0000EF93870000606D1694630462A462346F7
:109FE000FFF756FD38700BB0F0BD80B5052100229B
:109FF000FFF78EFF80BD0000B0B594B029246946FC
:10A0000000250D55034C0C800793069200F0DEFDF1
:10A0100014B0B0BD05020000B0B58CB00446EE200F
:10A02000205C00281BD12546D4352A684220002A0E
:10A0300014D012788A4211D16969481C04D0204694
:10A04000FFF7DEFC002009E002A900224A7000921E
:10A0500020461346FFF77CFD002802D0A8760CB0FE
:10A06000B0BD6969EBE710B5EE21415C002900D075
:10A0700010BD0446D43422684221002A08D0137847
:10A08000062B05D1416852684260FFF7B9FC0021F8
:10A09000A17610BD80B50521FFF7BEFF80BD80B55C
:10A0A0000521FFF7B9FF80BD80B5002100F0B2FBAC
:10A0B00080BDB0B58CB0044602AD01200090019582
:10A0C000204600F02BF8109A20462946FFF7F8FEAC
:10A0D0000CB0B0BDE0B5009103214A020E49002347
:10A0E00000F01BFB8CBDC046E0B5009103214A0285
:10A0F0000949002300F011FB8CBDC046F8B5069954
:10A100000391002102910449009103214902019128
:10A1100000F0E4FA8FBDC04601060000F0B597B02C
:10A120000446EE20205C002821D11D9801901C9847
:10A13000292102AF00257D540221797038700892E0
:10A1400009930095204639462A462B46FFF700FD25
:10A150000646282201983946FEF716F83878002876
:10A1600000D14425EE34002E00D03546257017B0BE
:10A17000F0BDF0B599B00646EE20305C002829D13C
:10A180000F4601933046EE30039004AC0720607018
:10A1900008460292FEF72AF8292100256554029903
:10A1A00021700B900A970095304621462A462B468F
:10A1B000FFF7CEFC00280BD104A80078002806D0B9
:10A1C00004A928220198FDF7DFFF284600E044207B
:10A1D0000399087019B0F0BDBCB51446054600934C
:10A1E00000222346FFF7B4FCEE216854BCBD10B535
:10A1F0000C4600F005F8002801D00021218010BD98
:10A20000F0B585B00C4606468089432787498842C9
:10A2100000D0F9E07068B168884200D8F4E03546B3
:10A2200010352846FFF7C4FB002800D0ECE0374685
:10A23000D0373046214600F011F900280BD03946BE
:10A2400002461E3A1E2A074600D2DDE022781F2A67
:10A250000F4603D02BE022781F2A01D12027D3E01C
:10A26000387F02280CD10020052A20D10821615E08
:10A27000002900D5B0E0202222704900218116E09B
:10A2800038680078052811D10392A0680190E06831
:10A290000290207904903046214600F0DFF8014614
:10A2A0001E391E2900D38AE00746ADE00020049045
:10A2B000039738680290401B0C211746FDF7D8FF22
:10A2C0003B46A070381F1C281CD8012181405848EB
:10A2D000014217D02089002814D03146C431029F92
:10A2E0008F426AD239460C31039A116078823B73EF
:10A2F0001746116888800520C043401D116888609A
:10A30000237800E0039F181F1C2807D801218140F3
:10A310004748014202D02089002803D1012130465C
:10A3200000F058FA2846FFF743FB002801D0002030
:10A3300004E03868401B0C21FDF79AFF049FE07091
:10A34000002F61D10520C5433A4E208C012812D040
:10A35000642816D000273849884255D0B04253D8D7
:10A36000002736A13A46072A4ED00B8883420DD0EB
:10A37000091D521CF7E72046FFF704FB002811D007
:10A3800092E7207802283AD14E200AE0A320D0405C
:10A3900001220240901D2278904234D189787F209A
:10A3A000084020702846002804D021180A8DCA844D
:10A3B000801CF8E7701DE084C7E7292724E0049992
:10A3C0006171039B072B09D13946019AA261029A58
:10A3D000E2610722627039E72A2715E039463A7FA1
:10A3E0002F27012A10D0062B11D0032B17D0022BB8
:10A3F0000AD1019AA261029AE2610222EAE70328E5
:10A4000001D1412700E03027384605B0F0BD049A5D
:10A410006271019AA261029AE2610622DAE7019A68
:10A42000A261029AE2610322D4E7C0460FB00000A5
:10A4300003000010FAFF0000FFFF000000000B0007
:10A44000EC034D000200890003008A001800A400FC
:10A4500020002C003F00CB00FFFF0000F0B58DB0C6
:10A460000C460022D1430B9107910A910990F030DC
:10A4700000900AA8801C019002921546039428219E
:10A480002046FDF7A8FE099800F002FC01461F23B4
:10A4900007461F401C2008401828089714D104A81C
:10A4A0002AC081A038181838057800273E46002DAC
:10A4B00011D03C02099800F0EBFB2018390E320253
:10A4C00056186D1E0746F2E71C2F02D31F2F00D02F
:10A4D000AAE0029E02E0039C04AD2ACD0998807B8D
:10A4E000002800D0CCE04809810001A251588F46D5
:10A4F000ED250030ED250030D1240030D12400308E
:10A50000E5240030E5240030032500301525003017
:10A51000001D207008991F292ED10021CA43A16077
:10A52000E2600CE008991F2900D184E05D49091D13
:10A530000022C91BB24100D27FE020702781024671
:10A540002BE008981F2800D173E0FE202070A76040
:10A55000E66028E0089A2270104614380B2800D9CB
:10A5600091E04A2378440079400087441616161675
:10A5700083898F938C8C8C160420C0430021C01BD0
:10A58000B1416BD3099839461E4600F08BFB334628
:10A59000002875D0A060E7602278FE2010400628D1
:10A5A00039D0FE2A3AD10AA8C0883C253F498842C2
:10A5B00000D064E70AA906220198FDF7E5FDA1682D
:10A5C000E26800253748401A2846089290411FD279
:10A5D0000024009B0694042C17D041CB3746079AE1
:10A5E000574005465540083B3D4307D04840089A30
:10A5F0005640064302D00833641CECE71960089803
:10A600005860611F0025039C02E03C25039C0699CD
:10A610000AA8018033E7E068401C10D00B980A9923
:10A62000216260622B462BE0162329E008991F293E
:10A6300007D1182324E0322322E02A2320E031230B
:10A640001EE000280CD00799C81BB14110DA022087
:10A650002070F843F143A060E160DFE72B230FE0B7
:10A66000A760E6600799C81BB14118DA022017E01D
:10A67000402305E0002039462039864103D21423C7
:10A6800018460DB0F0BD27720D2009E01A20207089
:10A69000A760C3E71B202070A760E660BEE7032029
:10A6A0002070BBE7FAFF000001020408FFFF000072
:10A6B00010B50B460246EE20145C0020C14308464C
:10A6C000002C00D010BD032BFCD85800101811210D
:10A6D0000901415A104600F0ADFA10BD10B58CB01A
:10A6E000044602A80121009101902046FFF716FDC3
:10A6F000EE20205C00280ED1EE340EAA07CAD2B29A
:10A7000002ABFDF719FE2070000604D111980599DF
:10A71000049A026041600CB010BDF0B58DB00D46DA
:10A72000EE21415C00291FD11E4614460746EE3734
:10A7300002A9FFF75CFD002801D0387014E01298E0
:10A740000190F2B202AB28462146FDF7F5FD3870C4
:10A75000000604D0002001990860486004E00598D4
:10A760000499019A116050600DB0F0BDBCB504466B
:10A77000089D0120009001952046FFF7CFFCEE20B8
:10A78000205C002800D0BCBDEE34079A069928460C
:10A79000FDF72EFE2070BCBDF8B51E4615460F46CF
:10A7A0000446083011210901FDF715FD204610303F
:10A7B000D02160502046D03006772760656024485D
:10A7C000A08106202074F0342021FF222046FDF7CE
:10A7D000FBFCF8BD10B5D022825803461033D030B0
:10A7E0009A4216D01478062C13D0D488641ED480D4
:10A7F0000268D488002C0CD11478062C05D09468FB
:10A80000641C02D10C3A0260EAE7002901D0002062
:10A81000D08010BD0246D032002901D083680B6081
:10A82000917F002911D10146103112688A4201D06E
:10A8300017210AE08189064A914205D14168806862
:10A84000814201D9152100E0002108467047C04629
:10A850000FB0000010B5D42141580446D03400296F
:10A8600009D00A78062A0ED18A684368934207D233
:10A870000122827305E00146103106220274002293
:10A880008260216001E000F08BF90020A07710BD0C
:10A89000F8B51D461646044609290DD00F4600237B
:10A8A00000930B2901D0394600E0022120462A46B8
:10A8B000FDF718FD0B2F04D0204631462A4600F044
:10A8C00021FA942020588188491C8180F8BD80B5E8
:10A8D00013460A460221FFF7DBFF80BDF8B51C4690
:10A8E00015460E4607460846FDF780FC0346032141
:10A8F00038463246FFF7CCFF022138462A46234627
:10A90000FFF7C6FFF8BD10B5044600F007F80221B6
:10A91000029A039B2046FFF7BBFF10BDBCB504465F
:10A9200000200090DD176A405D40D90F20462B467D
:10A93000FDF7D8FC942020588188491C8180BCBD3B
:10A94000E0B5002100910621FDF7CCFC8CBD1CB5C3
:10A95000044600910721FDF7C5FC9420205881880A
:10A96000491C81801CBD1CB5044600210091FDF7E7
:10A97000B9FC942020588188491C81801CBD80B579
:10A98000022100F0E6F880BDF0B585B016460191D1
:10A990000546942028580768AC68E21B0221284627
:10A9A000FFF752F80296002E18D00198002802D125
:10A9B000381BA968471803A8294600F0DDF90020D4
:10A9C0000499B94201D2014606E0039A002A02D056
:10A9D000C91BD01900E0C91B029A03C205B0F0BD23
:10A9E000B0B50C46054600F077F9A87B002800D0EA
:10A9F000B0BD0C2128462246FFF726F8B0BD80B531
:10AA0000052100F006F880BD80B5052100F001F8B1
:10AA100080BD10B59422825893795B1F5C425C41E3
:10AA20009288E240FFF710F810BD0000F0B585B045
:10AA3000092A02D80021016043E009310022049272
:10AA4000D243812B05D37F24E44363401F240E4669
:10AA500031E00193039102900D9F0C9C0A980346EC
:10AA6000002808D100201721091BB84103D30399FE
:10AA70000E4602981EE0039E04990493002B02DC0C
:10AA80002046384312D00D460FA0415C08460028EE
:10AA900007D0B454B618240A3B06E418401E3F0AF7
:10AAA000F5E7049B5B1A2946691CE6E717310C465B
:10AAB00002980399019B5B011B19B354B218891AC0
:10AAC0000260416005B0F0BD010102041CB50C46F6
:10AAD0000146807B002802D0012008741CBD087C40
:10AAE000002800D01CBD684600F046F90198009986
:10AAF0002160606000201CBD70B515460E460446FE
:10AB00009821FDF768FB204631462A4600F000F9FF
:10AB100020461430942160500420A07670BDB0B55A
:10AB2000426884680023121B03D00568002D00D002
:10AB30002B190B604A600C2100F00BF8B0BD80B5FA
:10AB4000052100F006F880BD80B5052100F001F870
:10AB500080BDB0B59422825893885B1C9380836833
:10AB60006524E443A34201D903240DE004468C3458
:10AB7000A24208D0054694350024948191739360D5
:10AB800008322A6000E004240474B0BD024803497E
:10AB90000160FDF775FAC04640130050008B00308D
:10ABA00010B50246D0325168D023C150CB88204C1A
:10ABB000A34202D08B88CB805168896842688A4260
:10ABC00002D20121817310BD816010BD7CB50446A5
:10ABD000EE20205C002800D07CBD0D462646D036F5
:10ABE0000023009301AA2046FEF7B2FFB0770006CB
:10ABF000F2D12978002906D062680198824205D2F4
:10AC00000120A07303E04420B0777CBDA0603068D1
:10AC1000C088074A904203D070688188C180297833
:10AC20007068306000222046FFF772F97CBDC04694
:10AC3000FEFF000002460C48814202D8002308466D
:10AC40000DE0084B0020C0431B1D9BB299420346F8
:10AC500005D0C8008118054A885889184B681946DC
:10AC60007047C046FBFF0000FAFF00001801F8FF24
:10AC700010B5994202D20020C04310BD0C46994243
:10AC800001D9012010BD11462246FDF7B6FA10BDCC
:10AC900080B5012100F006F8002801D0007880BDC1
:10ACA000002080BD827B002A0CD18289094B9A4208
:10ACB00003D142688368D21A00D200228A4203D2AA
:10ACC00001218173002070478268511881600068FB
:10ACD000801870470FB00000827B002A00D07047B8
:10ACE0008289304B9A4206D143688268934202D3EC
:10ACF0009B1A8B4202D201218173704751188160E7
:10AD00007047C04680B5836800F00AF880BD000037
:10AD100010B500238373234C84810EC010BDC04640
:10AD2000F8B50446807B002800D0F8BD0E46A08907
:10AD30001C49884209D16168A068814205D3154643
:10AD4000091A914201D3984202D20120A073F8BDA2
:10AD5000216800290CD0C21ACF1878193946FDF79E
:10AD600013FA002E04D0384631462A46FDF70CFA75
:10AD7000A0684019A060F8BD8A7B002A02D000219B
:10AD8000016006E08A89074B9A4204D10A68896803
:10AD900002604160704700220260426001208873B7
:10ADA0007047C0460F0B0000BFF34F8F03480449A4
:10ADB0000160BFF34F8F00BFFDE7C0460CED00E020
:10ADC0000400FA05F0B585B00E460490144D6946AE
:10ADD0001022284601F0B0F9124CF84FB8421BD1AE
:10ADE0000FCE009E064300960198084301900298FA
:10ADF0001043029003981843039069461022284696
:10AE000001F010FAB84207D1074804A9042201F062
:10AE1000E3F8B84200D10446204605B0F0BDC04674
:10AE2000000010502100004500FC8313FEB50022F5
:10AE300001910292D2008C588A185268234613431B
:10AE40000146034610D01E685D6837462F4306D082
:10AE50006640554035430833002DF4D125E0029A71
:10AE6000521C08460199E4E70D465C35002000902D
:10AE70000246D00001990F18B86D002817D0029231
:10AE80003E465C3658372C46281F0068002808D0FC
:10AE900033683A682968FFF7EBFE08350028F3D1DC
:10AEA00003E0029A521C2546E3E71B20FEBD0098F2
:10AEB000FEBD70B5049C002C0DD015680D4206D067
:10AEC0001D680668AE4306601568354305601B1DA6
:10AED000121D641EEFE770BD0146024626320C4883
:10AEE000032A08D87A4412795200974401070E02C7
:10AEF0000848401C01E0CA1D02D170470548704750
:10AF0000273101D0002070470248801C7047C0469E
:10AF1000090600060903000680B5002902D003F0E7
:10AF200059FE80BD002080BDF0B5A9B000AC0EC4B4
:10AF3000074603AC3099319A2046FFF7DDFD042621
:10AF400020463146FFF705FE0321124A0A23204618
:10AF5000FFF79EFC104D20463946009AA847204630
:10AF60000199029AA8472E992F9A2046A847204671
:10AF70003146FFF74EFD32992046FFF7A7FD014607
:10AF8000002801D1084600E01820012900D119202D
:10AF900029B0F0BDF37B00308F280030F0B5EDB064
:10AFA0001C4615460E4602F071FB00282CD00146C7
:10AFB00007A803F0B7FE002827D176980690759869
:10AFC0000590749803907398029072980190779806
:10AFD000049007AF0E490C22384603F0C5FE3846F0
:10AFE00031462A460B4B984738462146019A094C70
:10AFF000A04738460299039AA04738460599069A11
:10B00000049B03F07BFE00E001206DB0F0BDC04664
:10B01000F17B0030C15600300120704770B5B0B0F0
:10B02000044620A800F0B8FD8B4DA44EB04214D1C8
:10B030002E9801A97C2200F033FFB0420DD1019877
:10B0400001A9091D224600F0C9F8B04205D120210E
:10B05000034A204600F0FAFE3546284630B070BD5F
:10B06000BB7B0030F0B5F9B00F46064670A8FFF77D
:10B07000D5FF1F4DE84CA0420CD101973320C100F1
:10B0800002AF3846FDF7A7F8E149384603F09CFDCA
:10B09000002803D02C46204679B0F0BD1548026840
:10B0A00068AF202538462946334601F01FFE02A826
:10B0B00039462A4603F08EFD002801D00C4CEAE701
:10B0C00068A8202100F082FEA042094DE2D102A82A
:10B0D00070A9202203F07EFD0028DBD102A82022E7
:10B0E00078AB019903F06AFD0028D3D1D3E7C046BD
:10B0F000370000454800001070B594B0044604A81D
:10B1000000F05AFD0C4D0D4EB04212D10C480268B1
:10B11000089903A82023009301900A48234603F0CE
:10B1200043FD002805D1202107A2204600F08EFE15
:10B130003546284614B070BD3E0000450100A0F21F
:10B140004014001209000002434D33335F424C317A
:10B150005F484153483A000070B5B0B0044620A89B
:10B1600000F02AFD144D154EB04221D124980290D2
:10B17000229804902098069020200990104808906A
:10B180001048006803901048006805900F48006858
:10B1900007900420019001A9091D224600F01EF825
:10B1A000B04205D120210AA2204600F04FFE3546CC
:10B1B000284630B070BDC0463E0000450100A0F2F8
:10B1C00051D48213401400120CA380130C03831378
:10B1D000484C315F484153483A000000F0B5E9B0AF
:10B1E00015460E4607463320C10003AC2046FCF747
:10B1F000F2FF1849204603F0E7FC1749002826D142
:10B2000001957D1C15A71B4C6D1E15D006CE38462A
:10B21000083E04F057F93168480BA04204D1726827
:10B2200003A801F041FE03E0726803A803F0D2FC1A
:10B2300008360028E8D007E003A8202202AB0199D5
:10B2400003F0BCFC002801D0034900E0F7490846A0
:10B2500069B0F0BD090000023E000045416464721F
:10B260003A20307825782C2073697A653A20256455
:10B270000A0000008080020070B588B00F4D0029E0
:10B2800001D0284617E01446694603F011FDA84294
:10B2900011D100210AA06A46104B0729F1D0264699
:10B2A000CE40F60702D016689E4203D0121D001D44
:10B2B000491CF2E7006808B070BDC0460100A0F26A
:10B2C00047000045490000454A0000454B00004545
:10B2D0004C0000454D0000454E000045431257B755
:10B2E00010B500240461029C0260001D1AC010BD4C
:10B2F000F0B5F3B01E4617460C4604903320C1004B
:10B3000005AD2846FCF767FF9C49284603F05CFC26
:10B31000404D002836D106CF04984068083FFCF71E
:10B3200033FF05A896490C22FFF7F6FD002829D126
:10B330007A680498416805A801273B4602F0C0F9E5
:10B3400000281FD105A800210A463B4602F0B8F9A3
:10B35000002817D106CE05A800230393083E02F06B
:10B36000AFF900280ED105A86BA900F033F9002829
:10B3700008D1049881686BA820220192FCF73DFF58
:10B38000002802D0284673B0F0BD28463246049B00
:10B3900019698F42F7D206CA03980918101A1A6859
:10B3A000904200D8024658680292FCF7EDFE0498DD
:10B3B000416805A8029A03F00DFC0028E2D1009034
:10B3C00005A86BA900F006F90028DBD10498806875
:10B3D000019941186BA82022FCF70FFF0028D1D15A
:10B3E0000398001904994968029A00F0F5FD009944
:10B3F0000029C7D18D4B98420199C3D13246039899
:10B40000029B18180390203101917F1C8748BEE7EA
:10B41000090000023E0000450100A0F2F0B5EFB0C7
:10B42000079317460D460446066850688019401E6B
:10B430003146FCF7FEFE401C2061E168644A884208
:10B440005DD86868B0425AD807984068402856D1FD
:10B450003320C10009AE3046FCF7BDFE47493046F7
:10B4600003F0B2FB5A490E1D00282BD106CD6068AF
:10B47000083DFCF789FE09A841490C22FFF74CFD65
:10B4800000281FD16A68616809A801252B4602F0CF
:10B4900017F9002816D109A800210A462B4602F008
:10B4A0000FF900280ED106CF09A800230693083F04
:10B4B00002F006F9002805D1A16809A800F08AF871
:10B4C000002820D0594FBE421AD1749807990D68B0
:10B4D00000210991412109AA00F042FCB8420BD198
:10B4E00009984021009501911834264920232246CD
:10B4F00003F0C4FB002800D0354F384601E0164663
:10B5000030466FB0F0BD2021069B2069854226D2CF
:10B510000591049505CFC1180693D01A2568083FF8
:10B52000A84200D8054660682A46FCF72DFE6168EF
:10B5300009A803952A4603F04DFB0028059DC1D1BB
:10B54000A068411909A800F045F80028BAD1294699
:10B55000069B0398C3182031049D6D1CD5E7214636
:10B56000183109A8202208AB03F028FB00282F4F30
:10B570003E461748A7D0061DA5E7C04609000002B1
:10B58000F17B003009060006F0B599B01E4614465E
:10B590000591054606AF384610303821FCF71BFEF2
:10B5A000002309930894079302200690D84315902E
:10B5B000009301960293039338462946059A03F0B7
:10B5C000E2FD002801D0024800E0FB4819B0F0BDC0
:10B5D0003A00004570B5E8B00C4605463320C1007E
:10B5E00002AE3046FCF7F7FD2846314603F0D6FAA6
:10B5F000002805D102A8202201AB214603F0DEFA83
:10B6000068B070BD1FB50446074801A90C2200F0C0
:10B610006FFDE949884204D101A9C97803220A4093
:10B62000226004B010BDC046780410500100A0F2A2
:10B63000F0B5B5B014460D460646DE4A00273B4637
:10B64000FEF7DAFCEE20315C3046D030002905D020
:10B650008777442900D1D1E0D84DA4E10194069523
:10B660001035029500688488039704970897099716
:10B6700005970797002C00D1C2E00AA9304601F0D7
:10B680001FFA0546CC48854200D0BDE01098CC4951
:10B690004118072914D9CB494118062924D8C04696
:10B6A0007944097949008F440334363F48515A00A0
:10B6B00001200799014307910C99059108400FE07B
:10B6C0007944097949008F4403535665696D71784F
:10B6D00002200799014307910C980390C007400F7F
:10B6E00009990143099176E0B749884275D0B74975
:10B6F000884200D087E00D98412800D083E00C9963
:10B7000041220298FCF740FD082007990143079168
:10B7100061E00C9F5FE00AA814A901F0B7F90546A3
:10B720001498C007C00E50E00AA814A901F0AEF9A1
:10B7300005461498C007800E47E00AA814A901F036
:10B74000A5F905461498C007400E3EE00AA814A9C2
:10B7500001F09CF905461498C001C0B235E00AA872
:10B7600014A901F093F905461498C007C00C2CE009
:10B770000C9804902FE00AA814A901F087F9054657
:10B78000072080014030149949020140089808437D
:10B7900008901DE00C988007000D0AE00C98400707
:10B7A000400C06E00C984007800B02E00C98400724
:10B7B000C00A0899014308910DE00AA814A901F0F4
:10B7C00065F905461498C007400C09990143099191
:10B7D000F848854218D1641E4CE70AA814A901F064
:10B7E00055F9054614980028794800D079480699FB
:10B7F000C8600420079901430791E9E7F94DD2E0B9
:10B80000F84C254601E0E04DF64C3046FEF742FC90
:10B81000A54200D0C7E0264614A86F4918252A463D
:10B82000FCF7B2FC2FA86D492A46FCF7ADFC0120BD
:10B8300081032D9104212C9181072B9180042A9062
:10B840006748069D0899296068600020299029AA08
:10B850000598394601F0D4FE07460724299921406E
:10B86000286808432860B7420BD129AA0398049995
:10B8700001F0C6FE0746296829984007C00D084315
:10B8800028602E1DC005400F811EBF4A032904D227
:10B8900030685449014031600FE000280DD0012884
:10B8A0001546D0492AD10220009015462CAA2AAB71
:10B8B00030460999FFF7FDFA2A46CA498F423D46AC
:10B8C0001CD1069800682040811E032904D23068EC
:10B8D0004549014031600FE00028C2490D460DD0B6
:10B8E000012863D106200090154614AA2FAB3046DC
:10B8F0000999FFF7DEFA2A46BA490D468D4252D120
:10B900000E46079F0F2F3AD0384814A9542200F052
:10B91000C7FAB04246D1F8070DD01498A043069A52
:10B9200006CA214008181490314815990140314841
:10B93000104040181590B8070ED5A0011499814306
:10B94000069B0CCB0240501814902B4815990140CF
:10B950002A48184040181590780702D50698C06804
:10B960001790380705D514A8103041220299FCF72A
:10B970000BFC14A954220698FCF706FCF34A06981F
:10B9800000680440022C06D3C005400F022802D3F1
:10B990008442154607D101990868079A1043086048
:10B9A000354600E00546284635B0F0BD1546E54968
:10B9B000A4E7C046020001110100A0F231000045D9
:10B9C000FFFFFDDEFFFFFFDE010003210100042178
:10B9D00055AA55AAAA55AA55807900306879003031
:10B9E0000000F550FFFFFBBFFFFF0EEFD5D3821322
:10B9F0000EEF0EEFF110F110FBBFFBBF044004404F
:10BA0000F0B59DB0089317460D4604460AA82021BC
:10BA1000FCF7E1FB5B4A002620463346FEF7ECFAD2
:10BA2000EE21625C2146D031002A06D08E77442A6E
:10BA3000DD4C00D1A0E0C54C9EE02046089A01975D
:10BA400009688F88EE61072F0FD0079010462946AE
:10BA500003F02EF90446FB48844200D08CE00AA88B
:10BA600020222946FCF790FB0798229900917F1C21
:10BA7000291D079129460831069129460C31059167
:10BA8000294610310491294614310391089518353F
:10BA900002957F1E52D012A9054601F011F8044606
:10BAA000E84884424DD109A80670189839494018D1
:10BAB000072845D8784400794000874403410A119B
:10BAC000181F262D12A809A900F0ECFF0446089AB9
:10BAD00028E012A809A900F0E5FF0446079A21E032
:10BAE00012A809A900F0DEFF0446069A1AE012A87F
:10BAF00009A900F0D7FF0446059A13E012A809A986
:10BB000000F0D0FF0446049A0CE012A809A900F046
:10BB1000C9FF0446039A05E012A809A900F0C2FF74
:10BB20000446029A09A9097800291949284600D033
:10BB300016491160F2498C42ABD003E0F04C01E0B1
:10BB4000824C2846FEF7A6FA00980028019A0ED1EA
:10BB500008990F4C0D4B1C2E08D00AA88059A04202
:10BB600002D1885998420AD0361DF4E7E44C0120EE
:10BB7000C00711680143116020461DB0F0BD734C31
:10BB80002034F9E70100011131000045411204920F
:10BB9000431257B7FFFFFFDF80B50146044840223C
:10BBA00000F07EF9EE49884200D0D64880BDC046FC
:10BBB00060FD83130100A0F270B590B005466846A1
:10BBC000FFF7EAFFCF4CE64EB04207D10098402283
:10BBD000294600F065F9B04200D10446204610B075
:10BBE00070BDC0460100A0F2F0B5DFB018AE4268EB
:10BBF000DB4F002A00D1A1E0D036016818AD002447
:10BC000028462346FEF7C8FD04212846079422460D
:10BC1000FEF77EF9069630688088401C4A4D4C4CF1
:10BC2000401E7FD00597089018AF05213846079E23
:10BC30003246FEF76DF90CAA38462946A047691C22
:10BC40000BAA3846A047A91C0AAA3846A047E91CF7
:10BC500009AA3846A04716A8032149023D4A009286
:10BC600001910296039038463B4A3346FEF736FD73
:10BC70000698807F0028354F50D10DAF24213846DB
:10BC8000FCF7A9FA0C98394602F082FF0146883188
:10BC90002E4F1137002906D000283ED10C9802F013
:10BCA0005FFF002839D10DA82421FCF794FA0B98E6
:10BCB0001499002906D081B20DA80022134602F083
:10BCC00095FF01E00DA9088009988104890F08D02B
:10BCD0000121CA0283081A40890219400143114315
:10BCE00000E0014610910A9811900C980F901B48A3
:10BCF0000E901699179A0DA80CAB02F071FF014631
:10BD00008E3108D0002808D118A80521FEF784F943
:10BD10000126059F02E00D4F2737079E002E089849
:10BD20000CD07DE718AC04212046FEF775F92046BB
:10BD3000FEF7BAF90028ED4F00D0044F38465FB047
:10BD4000F0BDC0460100A0F2010001303100004505
:10BD50009D4A00300106000005000130010100800D
:10BD600010B58AB013460A46014600200990089093
:10BD700007900690094C05940390094802900948E1
:10BD800001900520C002049001A802F029FF0028BC
:10BD900001D0064800E0E7480AB010BD09060006D9
:10BDA00000010080124100010100A0F25400004592
:10BDB00010B5054A13689C00E40F04700020106061
:10BDC0005800C00F087010BD04044052F0B51C4A62
:10BDD00000231361536164241569EE070AD1ED064F
:10BDE000AD0FF9D0002C24D015691826B543156184
:10BDF000641EF1E71468136164255669F7070AD1D8
:10BE0000F606B60FF9D0002D16D056691827BE4396
:10BE100056616D1EF1E7556853611F22D54165409B
:10BE2000DD4A8908002902D020C0491EFAE71046E1
:10BE3000F0BD054A1D46F4E7034A2546F1E7C04632
:10BE4000000009500100A0F20800004570B50C4642
:10BE50000546002A03D009A0114603F033FB08A6CB
:10BE6000002C06D02978304603F02CFB641E6D1C94
:10BE7000F6E70A2003F080FD70BDC0462573000080
:10BE80002530327800000000B0B50346E448002AAF
:10BE900005D010CB20C965402843521EF7E7B0BD3E
:10BEA000FEB515460F460646DC4831463A462B4657
:10BEB000FCF714FC134C002812D1A91902AA042380
:10BEC000E748FCF70BFC00280AD10298019038469D
:10BED00029463246FCF71BFA0199814200D1E14C18
:10BEE0002046FEBD80B513460A460146DC48FCF7F5
:10BEF000F5FB002801D0034880BDDA4880BDC0466C
:10BF00000100A0F23D000045F0B585B0144605469D
:10BF100004910391029101910F20284000270028ED
:10BF20000BD0112C09D310210F1A01A928463A462B
:10BF300000F052F8DD4988420CD1A7420CD27819A2
:10BF4000E61B102E00D3102601A9324600F044F85B
:10BF5000F719EFE7574800E0D44805B0F0BDC046F8
:10BF60000100A0F2FEB515460E460746AA4801900C
:10BF7000BB4C2046394632462B46FCF7D7FB4D4991
:10BF8000002801D00D4624E0304629463A46FCF709
:10BF9000BEF902902046EC1902AA04232146FCF7C0
:10BFA000C5FB002814D10094384631462A4603F0D8
:10BFB00037FAE84DA8420BD101AA0423E6480099BC
:10BFC000FCF78CFB002803D101980299814200D034
:10BFD000384D2846FEBDC046F8B514460E46074605
:10BFE000DD48394632462346FCF7A0FB314D002898
:10BFF00008D138463146224603F012FAD549884224
:10C0000000D105462846F8BDF0B585B017460C4668
:10C01000064604922748343803907F480290351D25
:10C02000CD48294622463B46FCF780FB00282DD10F
:10C03000284621463A4603F0F3F9C64CA04225D1E2
:10C0400004AA0423C44D28463146FCF76FFB0028A0
:10C050001CD101AA042328463146FCF73FFB0028E7
:10C0600014D101980499814210D13D1D30462946D2
:10C070003246FCF74CF90390AD19B74E03AA0423DE
:10C0800030462946FCF752FB002803D0094C2046D5
:10C0900005B0F0BD02AA042330462946FCF71EFB7A
:10C0A0000028044E03D1029803998142EFD0344610
:10C0B000EDE7C0463C000045F0B5ABB01D4601922F
:10C0C0000E46074605AC98212046FCF784F80496F6
:10C0D0000395029702A92046019A00F03FF9D7493B
:10C0E000884200D070482BB0F0BDC0460100A0F2DD
:10C0F000FEB515460F460646974831463A462B464A
:10C10000FCF752FB234C002811D1A91902AA92482E
:10C11000FCF772FB00280AD10298019038462946A4
:10C120003246FCF7F4F80199814200D1C34C204615
:10C13000FEBDC0460100A0F280B513460A46014686
:10C140008548FCF731FB002801D0124880BDEC483F
:10C1500080BDC046F0B5ABB01D4601920E46074605
:10C1600005AC98212046FCF736F804960395029713
:10C1700002A9204600F09CF8064DE14CA04206D1F1
:10C1800005A8019900F03CF9A04200D105462846D7
:10C190002BB0F0BD240000450100A0F2FEB515460D
:10C1A000019107461C4802900820C64334466A485D
:10C1B0003946019A2B46FCF725FB002802D0641C67
:10C1C000F5D310E0019829463A46FCF7A0F804465A
:10C1D000E8190090604800992246FCF753FB0028BC
:10C1E00004D0761CF6D3304D2846FEBD2646384690
:10C1F00001992A4603F03AF92B4CF14DA84208D197
:10C2000002AA55480099FCF7F7FA02994E400643F6
:10C21000EAD02546E8E7C046F7FFFFBA0000205203
:10C220000100A0F2F8B515460E4607460820C443A3
:10C230004948394632462B46FCF7E4FA002803D039
:10C24000641CF5D31848F8BD384631462A4603F039
:10C250000DF9DB498842144900D101460846F8BD72
:10C26000000020520100A0F2F0B5ABB01D460192D3
:10C270000E46074605AC98212046FBF7ACFF049616
:10C280000395029702A9204600F012F8064DF74CDC
:10C29000A04206D105A8019900F0D2F8A04200D131
:10C2A000054628462BB0F0BD230000450100A0F252
:10C2B000F0B599B0514C002837D0002935D005464B
:10C2C0004868402831D868600A682A600830E86009
:10C2D0008868A86004A9284602F0C6FAE34A90429A
:10C2E00020D1686D874988421ED12E686B682F4621
:10C2F0005837194831463A460193FCF767FC002845
:10C300000ED109AA14483146019BFCF74DFA0028CA
:10C3100006D109A93846019AFBF76FFF002807D01C
:10C32000213402E0A41D00E01446204619B0F0BDFF
:10C3300075486865284650300290E868039004A864
:10C3400002A9FDF705FB002801D03A34EDE7E24CE5
:10C35000EBE7C0460100A0F200002052F0B58DB01E
:10C36000264E002835D00B46002932D05968402986
:10C370002FD804460546583507465037416018689F
:10C38000206008460830E0609868A060002088427D
:10C3900004D2115C2954401C6168F8E722682846E1
:10C3A000FBF7B5FF584920656165A0680190E0681A
:10C3B000FDF71EFA04970697039001980290E06833
:10C3C0000590079008A802A9FDF79EFA002803D05F
:10C3D0003A3630460DB0F0BD05CC2946FFF722FFB6
:10C3E000E14CA042F6D108A806A9FDF7B1FA002851
:10C3F00001D03A3634462046ECE7C04602000045FC
:10C40000F0B585B00C460546694602F02DFAD64EC9
:10C41000B04210D105CD2146083DFFF78DFEB04258
:10C4200009D12F6D2A6869682046FBF770FF8742A3
:10C4300000D0324E304605B0F0BDC0460100A0F23B
:10C44000F0B589B00D46044604A902F00DFAFA4F82
:10C45000F849884222D105CC083C264610363146A0
:10C46000FFF76AFEF34988421AD1206D01902268D5
:10C4700061683046FBF74BFF019981420FD1264698
:10C48000583620465030019000206168884209D219
:10C49000295C325C0A433254401CF6E71C373846AC
:10C4A00009B0F0BD22683046FBF731FF1549206521
:10C4B0006165019D0295E068039004A802A9FDF75B
:10C4C00047FA002801D03437E9E705CC3146083C6B
:10C4D000FFF7A8FED7498842E2D10B486065029574
:10C4E000E068039004A802A9FDF732FAD1490028B8
:10C4F00001D0343739460846D2E7C0460800004527
:10C500000100A0F255AA55AAAA55AA55F0B5FFB048
:10C5100086B0044684915EAD45A964222846FEF7A4
:10C52000EBFA05212846FEF714FB234803A9412610
:10C530003246FFF7DDFD214DF749884237D102949D
:10C54000019603A800901F4FBA1C5EAE002430462F
:10C550002346FEF7D8F90420019084A800903046C5
:10C560003A462346FEF7CFF905213046FEF751FA49
:10C5700016A93046FEF7AAFA002818D1179A16997C
:10C5800014A8B423009301900F4818AB00F070F882
:10C590000546FD4885420AD11498159900900191ED
:10C5A0001F20020600230298FEF7ADF9FD4D284634
:10C5B0007FB006B0F0BDC046880410503200004580
:10C5C0000100A0F2010001120400FF7FF0B5C9B024
:10C5D0001D4616460A46014602AF00243846234649
:10C5E000FEF7DAF8042138462246FDF791FCEE20EA
:10C5F000385C1D4C002802D0204649B0F0BD02A88E
:10C600000021FEF755F8122242400A43F4D1EE37DA
:10C6100038780028F0D14E98019002AF01213846B9
:10C620003246FDF7C7FC3846FDF71DFD0526002202
:10C6300038463146FDF76CFC38463146FDF7ECFCD8
:10C6400038462946FDF746FD38460199FDF742FD7B
:10C6500004213846FDF7E0FC3846FDF725FD0028AB
:10C66000CAD1E94CC8E7C046310000450100A0F23C
:10C67000F0B597B01E4605920D46044606AF402120
:10C680003846FBF7A8FD00210D910C940B91022078
:10C690000A900E9101200004119010910F91062034
:10C6A000C0430890801D14901D9C04941C98039016
:10C6B00002960191009138462A46059B02F017FD2B
:10C6C000002805D0616805A002F0FCFE0F4800E0DC
:10C6D000014817B0F0BDC0460100A0F24641494CE8
:10C6E00045443A20745F636F73655F7369676E31A9
:10C6F0005F7369676E207061796C6F616420287365
:10C70000697A65203D202564290A0000560000450D
:10C71000FEB50D460146134C099885421FD81F46A9
:10C720001646089801902A46FBF72EFD002E0BD0E6
:10C73000002F09D002AA30463946FFF711FBE54E1B
:10C74000B0420CD1029A02E000220292E14E01981E
:10C750000A9B2946FEF718FFB04200D10446204646
:10C76000FEBDC0463A0000450100A0F24108084A5B
:10C770000A40801A0749820808400A401018010937
:10C7800008180549014005484843000E7047C04657
:10C7900055555555333333330F0F0F0F0101010139
:10C7A000F0B5DBB00C46064635AF03A9C8223846C3
:10C7B000FEF7A2F93846FEF7C2F909204206002525
:10C7C00038462B46FEF7AAF83846FEF7B8F9384641
:10C7D0003146FFF79BFEBF4FB84214D135AE30460D
:10C7E000FEF70DF93046FEF70AF901A93046FEF7CB
:10C7F0006DF901461048002901D02A3003E0E168B4
:10C80000029EB14206D2A168CD708D704D700D7040
:10C810005BB0F0BDA0680199001D3246FBF7B4FC87
:10C82000A0680670310EC170310C8170310A417000
:10C830003846EDE70100A0F208000045F0B53B4F97
:10C84000BD443C4A6A4403923B4A6A4404920092C3
:10C850003A4D6D443A4E6E442A463346FFF7B6FED3
:10C860003820009001208202364F6F4416A9FFAB9A
:10C870005C333846FEF734FD05AC2649412220469C
:10C88000FBF782FC0094384629463246049BFEF7AB
:10C89000C5FDCE4EB0423AD12A4868441F4C274AC3
:10C8A0006A44274B6B442146FEF722FDB0422ED14D
:10C8B0000398026F24486844202100910190184891
:10C8C000224B6B44214602F06FF9002801D06848E2
:10C8D0001DE014481D4969442022FFF77DFBB0424A
:10C8E00015D1114D1A49694418222846FFF7D8FA84
:10C8F000B0420CD1606CA16C164A6A441160039975
:10C9000008601349694418222846FFF72BFB084F9B
:10C91000BD44F0BD047A00300100A0F20014001202
:10C920000900000270D382132FB0C2131CF4FFFF62
:10C93000E40B0000680B0000CC0B0000DC0B0000D7
:10C94000D40B0000940B0000900B0000700B000053
:10C95000580B00006C0B0000F8B50949019103A9C0
:10C9600002AA00F06DFE9949884206D10299039807
:10C9700001AA0423FFF778FC00E0024804B080BD60
:10C98000431257B7230000450100A0F280B50346CB
:10C99000080705D0044854221946FFF7E3FA80BD82
:10C9A0008A4880BD0100A0F2D5D38213B0B5874D6F
:10C9B000002901D42846B0BD04469148824216D1D0
:10C9C000002B1BD01148124920232246FFF774FB8D
:10C9D000A84212D103200D49202200F053FDA842A5
:10C9E0000BD10C4800212422FFF78EFAB0BD074876
:10C9F000074920232246FFF737FCB0BD0548202217
:10CA00002146FFF7AFFAB0BD0100A0F2D0061050EA
:10CA1000F0D282132DD4821370B5B8B028A8FFF7D6
:10CA2000CBF80025124C134EB04215D1379809A906
:10CA30007C22FFF735FAB0420ED1099809A9091DE9
:10CA400001AAFEF7CBFBB04206D101A820210AA221
:10CA5000FFF7FCF901253446002D05D00A4801A94D
:10CA60002022FFF7B9FA0446204638B070BDC04610
:10CA70003E0000450100A0F25345435552455F4832
:10CA80004153483A0000000051D48213BCB50C4613
:10CA900001AD00212970294600F004F829782160B1
:10CAA000BCBD00000078152803D0142805D1002053
:10CAB00000E001200870E248704707487047C04610
:10CAC00080B5FDF794FB002801D0034880BDDC4809
:10CAD00080BDC0460100A0F23100004510B590B005
:10CAE000144600230593049306AA029204AA019215
:10CAF000012200920A46FDF739FE0498206010B02A
:10CB000010BD0000F0B589B005462D4F07602D4ED1
:10CB100005A910223046FFF70FFB2B49F54CA04228
:10CB200011D12B48016801914168029181680391FC
:10CB3000C068049001A805A91022FBF75EFB00283D
:10CB400005D0214C00E00C46204609B0F0BD05A8F8
:10CB500010213246FBF7DBFB06461E48864201D118
:10CB60002E60F1E71C4869460422FFF7BBF9A0429A
:10CB7000E7D100988642E4D118488642F0D01848A0
:10CB8000864219D017488642EAD017488642E7D035
:10CB900016488642E4D0164886420DD01548864293
:10CBA0000AD01548864207D014488642D8D0144887
:10CBB0008642D5D02F60C4E712482860C4E7C0463B
:10CBC0007F952A8800001050220000450100A0F245
:10CBD000200440521A11A3F900FC8313BD14739C66
:10CBE000E4BFB5E0C806D9F23E754BF412E841FD4A
:10CBF000FD8C8702D1118D0B27621F0D7EC9D97163
:10CC00000BDB731F14F7485D0448054902680A40AE
:10CC100003681B04DB179A42F8D1704708029A5246
:10CC2000FF010000F0B585B0074602900120049096
:10CC3000FCF724FAFF200230022600240394314638
:10CC40002246FCF73DFD30462146FCF73DFDE1253F
:10CC50006C0338462146FBF7ECFA0746204678433A
:10CC60000299081A4001290340182146FBF7E1FA0E
:10CC700003467A1E3046039F3946FCF735FD3046A1
:10CC80003946FCF729FD154C206803210843206034
:10CC900060688843606014200090114807210622D4
:10CCA000049D2B46FBF7C3FB2068802108432060CE
:10CCB0006068884360600B4E30463946FCF7F6F8F2
:10CCC0003046FCF7CBF8084930463A46FCF7FCF80A
:10CCD000E80731680143316005B0F0BD50400052B3
:10CCE0000003815200009A52687A0030FEB500922B
:10CCF00002468908C80002908800019010460F463D
:10CD0000002F0ED0029C1C590225EC41019D5D595B
:10CD10000126F5411E686E40664040C01B1D7F1E07
:10CD2000EEE7009C002905D001CC1368434008C2FF
:10CD3000491EF7E7FEBD0000FEB51C461646074635
:10CD40008D08A80002901818294601F051FD164AD6
:10CD5000CA49884225D1E80001902018294601F0EF
:10CD600047FD114AC54988421BD120462946002962
:10CD700005D004CF08CE534008C0491EF7E7029BF8
:10CD8000019E002D0CD0E0580121C841A15902227A
:10CD9000D1414140206848402060241D6D1EF0E7CD
:10CDA000B64A1046FEBDC0460800004510B50A1838
:10CDB000521E4908002907D00378147804701370B4
:10CDC000401C521E491EF5E710BD0000F0B589B0A9
:10CDD000AA4F002800920D4611D01A4801A920221E
:10CDE000FFF7AAF9B84228D12D4C226801A8274E96
:10CDF000314600F099FBB8421FD1274810E0124895
:10CE000001A92022FFF76EF8B84216D1234C226800
:10CE100001A81D4E314600F087FBB8420DD11D48D8
:10CE20001B490E6088601F48046020684860E36802
:10CE30000122284600999847384609B0F0BDC046FF
:10CE40000100A0F23804105071D4821310B51346BB
:10CE5000002801D00D4C00E00B4C0D4A1460002856
:10CE600001D00D4C00E00B4C9460002801D00C4820
:10CE700000E00A480B4C206004685460C46801223A
:10CE800008461946A04710BD00A080130000831378
:10CE9000002300500020801300E082130CA38013B5
:10CEA0000C0383132C7C0030F0B5A3B015460E465E
:10CEB00002908320C043019000270097AF4215D213
:10CEC000EC1B802C00D3802403A930462246FFF7B8
:10CED00033F96A49884207D103A90298224601F032
:10CEE00079FEE7190028E9D0019800E0009823B006
:10CEF000F0BDC0460100A0F2F0B595B006920591D4
:10CF00000646002707970490EE365B4806998F4245
:10CF100000D180E01420784305990C18204602C8FF
:10CF200003291ED87944097949008F44011C012442
:10CF300000230993089302680AA8029008A80190A8
:10CF4000012000900498FDF711FC307800284A4930
:10CF500027D109990029484923D1089907914749C0
:10CF60001FE030781CE0026807A8009000230498B6
:10CF7000FDF79FF810E000230B930A9302680AA8BC
:10CF800003214902254D00950191029303900498D5
:10CF9000FDF7A4FB0B98079030780028374900D0A4
:10CFA000354900223270442802D00028324815D179
:10CFB000FB488142084611D1206803282AD8C04680
:10CFC00078440079400087440F1B0101E16807980D
:10CFD00088421FD32169884203D91BE0217A0029A6
:10CFE00019D17F1CEE4891E7207B103407999042BD
:10CFF00010D023689B5C521CCDB2AB42F7D1F0E756
:10D00000207B0028EDD00C340798411E88416178C0
:10D010008142E6D0184815B0F0BDC04601060000B8
:10D02000F8B51D4616460C460746DB172A46FCF7A0
:10D03000E3FFEE20385C00280FD0EE370021397076
:10D040000D4D442815D10834711CD548491E0FD008
:10D0500022781434002AF9D00BE0384621463246B3
:10D06000FFF74AFF054605213846FCF7D5FF00E0EB
:10D0700005462846F8BDC046310000450100A0F233
:10D08000F8B50020039002900D20000301900720C6
:10D090004002009002486946FDF794FE04B080BD4E
:10D0A0003E754BF4F0B5FFB0FFB0CFB0B94DBA4EFE
:10D0B0003BAA042328463146FFF74CF8B74C4F34BF
:10D0C000B74FB8421DD13B98FFF750FB401C1E28BC
:10D0D00017D80021C9438140C8433B903BAA042391
:10D0E00028463146FFF7C0F8B8420AD1AD48BBA97F
:10D0F0006022FEF7FDFFB84201D1044601E0A74CD3
:10D100004F34A948A9490160BC4200D0C3E0BBA884
:10D1100030A9FDF7A7FFA14C3834B84200D0BAE0DF
:10D1200028A8FEF719F8B84200D0B4E03320C100B7
:10D130003BAD2846FBF74FF89D49284601F044FDDA
:10D14000002800D0A7E03BA830A9202201F042FD32
:10D15000002800D09FE03BA828A9202201F03AFD3A
:10D16000002800D097E03BA820A92022FFABA033E5
:10D1700001F024FD002800D08DE020A80690202694
:10D180008CA23146FEF762FE002005903890FFAD7C
:10D19000A03524212846FBF71EF8894929808948B3
:10D1A000B44A6A4410608848B34A6A44106028460A
:10D1B000069A334601F01AFD0028784D55D101201A
:10D1C0000102FFA8A03041800599AC4A6A44116071
:10D1D0007E49AB4A6A44116038A901F0D3FC0028AB
:10D1E0006E4D42D1389818A920223AAB01F0BEFC0E
:10D1F000002808D0389801F0B3FC18A82021FEF7C9
:10D20000E5FD664D31E018AD202628463146FFF792
:10D21000CDFD6F4802683BAB28463146FFF78CFDD9
:10D22000B84217D118A82021FEF7D0FD054638983E
:10D23000BD4218D107A9412239AB01F09DFC05463A
:10D24000389801F08DFC002D544D0ED100283D463C
:10D25000D7D10AE00546389801F082FC18A82021B1
:10D26000FEF7B4FD01E001F07BFCBD4213D1594D46
:10D270003BA960222846FEF775FEB8420BD1643503
:10D2800007A941222846FEF76DFEB84201D10446A7
:10D2900001E0424C3834BC4201D0504900E04E49D4
:10D2A0004FA002F00FF9BC426FD1554C20461A3006
:10D2B00030A91822FEF7F4FD0025B84258D118A96C
:10D2C00002222046FEF7ECFDB84251D104951B2006
:10D2D0000201FFADA035BBA928460392FDF70CFC67
:10D2E000052105912846FDF734FC464907AA41234C
:10D2F000454C2846A04745A130AC08230693284654
:10D300002246414EB0472246083247A12846069B96
:10D310003D4EB04710344BA128462246069B34466A
:10D32000B0474EA118AA02232846B04728460599BF
:10D33000FDF76FFB28A92846FDF7C8FB002801D0A0
:10D34000049D15E0299A289920A8039B5033009347
:10D35000019045483BABFFF78BF9B842049D07D1DC
:10D36000219A20994148FEF74FFEC01B4542454196
:10D37000002D01D1194900E017493D4802F0A2F8FB
:10D38000002D01D1054F2D373C4620467FB07FB0A0
:10D390004FB0F0BDA006105090D282130800004597
:10D3A0000100A0F21000105010012152010000F005
:10D3B00009000002534545445F484153483A000084
:10D3C0001271000000060006013C00000001008010
:10D3D0004800001091D48213AF7B0030A87B00304E
:10D3E00025733A2050726F6772616D20414C49413C
:10D3F00053206B65792070616972200A000000007B
:10D4000015B0C213E07B00309D28003042415345E7
:10D410002053455F52545F5345525649434553206C
:10D4200056455253494F4E0046554C4C2053455F8C
:10D4300052545F5345525649434553205645525323
:10D44000494F4E00434D33335F4C315F424F4F5491
:10D450002056455253494F4E0000000053494C4955
:10D46000434F4E5F494400000400FF7FCBB9C21315
:10D47000C77B0030AC040000A8040000A404000036
:10D48000A0040000F0B5AFB014460D4606461FA834
:10D49000FEF792FB7C4FB8420FD12E9869467C2252
:10D4A000FEF7FEFCB84208D1F00069460818456056
:10D4B00084602E987C22FEF755FD2FB0F0BDC0464B
:10D4C000F0B591B0044601A8FDF716FE144D6E4F5D
:10D4D000B84222D1134E09A920223046FEF702FDA0
:10D4E000B8421AD101A809A90822FEF7CDFCB8421A
:10D4F00013D109A920223046FEF7F4FCB8420CD122
:10D5000001A809A90822FEF7BFFCB84205D101A96C
:10D5100020222046FAF738FE3D46284611B0F0BDDD
:10D520004100004570D38213F0B5EDB00546124FAF
:10D530003C6809A80090114E01AB3046A047104C42
:10D54000002816D17A6809A930469047002810D1E2
:10D5500001AE20210BA23046FEF778FC08223046AF
:10D560002946FEF791FC4849884201D1044600E073
:10D57000E41C20466DB0F0BD5C00001000000450BB
:10D580003E000045494D475F484153483A0000007E
:10D59000BCB50C480C4901AA0423FEF7DBFD0B4C7B
:10D5A0000B4DA8420CD10198FFF7E0F81D2807D8D1
:10D5B0000198FFF7DBF8014606A001F083FF2C4637
:10D5C0002046BCBDA006105090D2821357000045E3
:10D5D0000100A0F25544535F434E543A2025640A9B
:10D5E00000000000B0B50446044D28462146FBF774
:10D5F0002FFD0028F9D02046B0BDC04600009A5249
:10D6000010B50346002414600C48022B05D0012BF2
:10D610000BD0002B10D114600DE0022907D0012996
:10D6200007D0002908D1022004E0012002E00420F4
:10D6300000E003201060144810BDC04631000045D2
:10D64000042808D8800006A31B580B6009A10858BD
:10D6500010600D48704701487047C0460200004501
:10D66000D0031050F003105080061050E00310500B
:10D670007006105060FC8313E0FC831310D28213F9
:10D68000A0FC8313D0D182130100A0F201462B200D
:10D69000C24310461C300B462633032B08D8C04625
:10D6A0007B441B795B009F4401050901501C01E08C
:10D6B000CB1D00D17047273100D0002210467047A3
:10D6C000F0B589B01F4614460D460646002002926A
:10D6D0000390009004A806A90A220223FDF7A6F9E8
:10D6E000059A04993046FDF717FC002806D1002F53
:10D6F00004D0304629462246FDF70EFC09B0F0BDA5
:10D7000070B58AB014460D4606460020029203907A
:10D71000009005A807A90A220223FDF787F9069AB7
:10D720000599304601F020FB30462946224601F09B
:10D730001BFB0AB070BDB0B54B78022B13D18A69C0
:10D74000CB69022454401C431ED00368083B0B22C3
:10D750009C68DD6825430833521E002DF8D1002A4D
:10D760000ED1482215E04822072B10D10368503310
:10D770000B24641E9D680833002DFAD1002C08D0BC
:10D780008A691A60C969596000210A4602E00A21C3
:10D7900000E01A2141601046B0BD000070B5F34EA4
:10D7A000B544F34868442190F24C6C44F248684414
:10D7B0001D90F24868441F90F14868442290F14F50
:10D7C0006F44F1483221F14A02604160F04D284631
:10D7D0000F30F049086025A824A9FEF7E9FAEE48C1
:10D7E000FFF720FAEDA002F0CFF8FFF70DFAEF48AF
:10D7F00068440021017023913960DF48684420901B
:10D80000EB4EEC4868441C90D94868441E90EA48A6
:10D810006844FFF777F9E94AA84238D1F868E8493F
:10D82000884202D0E749884233D11B971996E648CF
:10D830006844FDF7E7FEE14A0646A84200D051E2FF
:10D8400001201A901B99C868DD4A90422ED1DF4D05
:10D8500026A904222846FEF745FBCD4988421AD165
:10D86000269800280FD0021D2692012040028242F5
:10D8700009D8D74969442846FEF712FBC44EB04286
:10D880001A9908460BD000201A99C14E07E01A36A3
:10D8900028E2283626E2C64E353600211A9800299D
:10D8A000C64A00D11EE200281B9950D08868092181
:10D8B0004A0226A9FFF78AFA0646B54886421A9810
:10D8C0001890BE4A00D00DE210680178427812022A
:10D8D0005118827812048918C27812068A18011D1C
:10D8E000BC4D6D44002628463346FCF755FF2846BC
:10D8F000FCF77BFB1120020628463346FCF77CFB35
:10D90000EE22A85CAA492931002802D00E46AB4A73
:10D91000E8E117911592EE351B98C668AE48684449
:10D920000090AE48021DAB48684400273B46FCF718
:10D93000E5FB287800281AD02F704428944E9F4A7F
:10D9400001D09B4E293616971A981490BAE00920F8
:10D950004202002026A91890FFF738FA06468C48A4
:10D960008642964A00D0BDE101202390ACE794485E
:10D97000864200D09FE09A48684416909949412613
:10D980003246FAF701FC229F7869B9697C4A6A44F9
:10D990000292012214921202903201928C4A6A443D
:10D9A0000092169A3346FEF7B3FE06467848864242
:10D9B00000D082E006CF704E6E44002730463B46D2
:10D9C000FCF7EAFE3046FCF710FB87A10722684B04
:10D9D0006B443046FCF7CDFB31461598305C744EF5
:10D9E0002936002816975BD11391206883A10A225B
:10D9F0001290FAF70FFC1190002808D082A10B2298
:10DA00001298FAF707FC00211491002847D11398C7
:10DA1000EE301390584868441290FCF71BFF7DA12C
:10DA20000622534B6B441298FCF7A3FB1398007823
:10DA3000002834D16068412831D121687948684490
:10DA40004122FAF7A1FB119800281BD14A4F6F44DD
:10DA50003846FCF7FFFE74A10622454B6B4438465E
:10DA6000FCF787FB139800780127002818D160681D
:10DA70004128524A15D16B486844413021684122FF
:10DA8000FAF782FB3C4E6E443046FCF708FB30460A
:10DA9000FCF70AFB00283E4E01D0454E2936149F64
:10DAA000464A3B48864200D04EE7002114911A991D
:10DAB0001691064606E03E4E4836002716971A98FD
:10DAC00014903E4A3248864200D00BE12A4868440E
:10DAD00000904248821C3F48684400242346FCF7DB
